:1000C7001422003F0006005B004F0066006D007DB4
:1000D7000007007F006F0A180076007900380038A3
:1000E700003F100800010002000400080010002073
:0400F7000040008045
:05011C0012008F80FBC2
:10008F00E4F536F537F536F537AF37EF25E02422AF
:10009F00F808E6F5A0EF25E02408F808E6F5B07FAC
:1000AF000A7E001200FC0537E53770020536C3944F
:0700BF0005E536940040D274
:0100C6002217
:1000FC00E4FDFCC3ED9FEC9E5015E4FAFB0BBB003A
:0F010C00010ABA27F8BB10F50DBD00010C80E405
:01011B0022C1
:03000000020003F8
:0C000300787FE4F6D8FD75813702004AD2
:10000F0002011CE493A3F8E493A34003F68001F2EA
:10001F0008DFF48029E493A3F85407240CC8C333F2
:10002F00C4540F4420C8834004F456800146F6DFC1
:10003F00E4800B01020408102040809000C7E47E8A
:10004F00019360BCA3FF543F30E509541FFEE493B6
:10005F00A360010ECF54C025E060A840B8E493A37D
:10006F00FAE493A3F8E493A3C8C582C8CAC583CAA8
:10007F00F0A3C8C582C8CAC583CADFE9DEE780BE60
:0100FB000004
:00000001FF
