:1000DF001408003F0006005B004F0066006D007DB6
:0600EF000007007F006F16
:0500F60012008F80FBE9
:10008F00E4F51CF51DF51CF51DE51D25E02408F80C
:10009F0008E6F5A0F4F5907F0A7E001200BF051D5B
:0F00AF00E51D7002051CC3940AE51C940040DA9D
:0100BE00221F
:1000BF00E4FDFCC3ED9FEC9E5015E4FAFB0BBB0077
:0F00CF00010ABA27F8BB10F50DBD00010C80E443
:0100DE0022FF
:03000000020003F8
:0C000300787FE4F6D8FD75811D02004AEC
:10000F000200F6E493A3F8E493A34003F68001F211
:10001F0008DFF48029E493A3F85407240CC8C333F2
:10002F00C4540F4420C8834004F456800146F6DFC1
:10003F00E4800B01020408102040809000DFE47E72
:10004F00019360BCA3FF543F30E509541FFEE493B6
:10005F00A360010ECF54C025E060A840B8E493A37D
:10006F00FAE493A3F8E493A3C8C582C8CAC583CAA8
:10007F00F0A3C8C582C8CAC583CADFE9DEE780BE60
:0100F500000A
:00000001FF
