:1000B600140C003F0006005B004F0066006D007DDB
:0E00C6000007007F006F020A00000208000021
:0800ED0012008F1200D580F80B
:10008F0020900BE50945087005F5087509013090BA
:10009F0015E50964014508700D050BE50B700205A8
:0700AF000AE4F508F509223F
:1000D500E50B25E0240CF808E6F5A0E50B640A45D8
:0800E5000A7004F50AF50B2274
:03000000020003F8
:0C000300787FE4F6D8FD75811F02004AEA
:10000F000200EDE493A3F8E493A34003F68001F21A
:10001F0008DFF48029E493A3F85407240CC8C333F2
:10002F00C4540F4420C8834004F456800146F6DFC1
:10003F00E4800B01020408102040809000B6E47E9B
:10004F00019360BCA3FF543F30E509541FFEE493B6
:10005F00A360010ECF54C025E060A840B8E493A37D
:10006F00FAE493A3F8E493A3C8C582C8CAC583CAA8
:10007F00F0A3C8C582C8CAC583CADFE9DEE780BE60
:0100D400002B
:00000001FF
